:100000000C9402010C942A010C942A010C944D12B8
:100010000C944D120C944D120C942A010C942A014C
:100020000C942A010C942A010C942A010C942A01A4
:100030000C942A010C942A010C942A010C942A0194
:100040000C948C100C942A010C94FC100C94D61077
:100050000C942A010C942A010C942A010C942A0174
:100060000C942E110C942A0107634236B79BD8A733
:100070001A39685618AEBAAB558C1D3CB7CC5763CD
:10008000BD6DEDFD753EF6177231BF000000803F7B
:1000900008000000BE922449123EABAAAA2ABECD97
:1000A000CCCC4C3E00000080BEABAAAAAA3E000009
:1000B0000000BF000000803F000000000008417801
:1000C000D3BB4387D1133D190E3CC3BD4282AD2B38
:1000D0003E68EC8276BED98FE1A93E4C80EFFFBE30
:1000E00001C4FF7F3F0000000000436F756C642077
:1000F0006E6F742066696E6420612076616C69643D
:1001000020424D503238302073656E736F722C2050
:10011000636865636B20776972696E6721004C695B
:1001200067687420496E74656E736974793A20004B
:10013000436172626F6E204D6F6E6F786964653ACD
:100140002000417070726F7820616C7469747564FE
:10015000653A200050726573737572653A200054D9
:10016000656D70657261747572653A200054656DD5
:1001700070657261747572653A200048756D6964C6
:100180006974793A20004661696C656420746F2057
:10019000726561642066726F6D20444854207365F7
:1001A0006E736F72210000000000240027002A00F7
:1001B0000000000800020100000304070000000026
:1001C00000000000000000002300260029000000BD
:1001D0000000250028002B00040404040404040487
:1001E00002020202020203030303030301020408E2
:1001F0001020408001020408102001020408102091
:10020000C5127B1911241FBECFEFD8E0DEBFCDBFD2
:1002100011E0A0E0B1E0E4EEF3E402C005900D923D
:10022000A639B107D9F723E0A6E9B1E001C01D92D4
:10023000AD3EB207E1F711E0C1E0D1E004C0219783
:10024000FE010E94DE1FC030D107C9F70E94E213F1
:100250000C94E5210C9400008F929F92AF92BF9274
:10026000CF92DF92EF92FF92CF93DF93A091DE03C4
:1002700030E081113A2F8091DF0390E0880F991FC1
:10028000AC014C535E4FC090E403D090E503E09086
:10029000E603F090E70360E070E0CB01FA01C5915E
:1002A000D49128812A2323130FC04B015C012FEF27
:1002B000821A920AA20AB20A6C157D058E059F0564
:1002C00070F060E070E0CB01DF91CF91FF90EF9094
:1002D000DF90CF90BF90AF909F908F900895C50111
:1002E000B401DCCF8230910538F0880F991F880F58
:1002F000991F05970197F1F7089590E0FC01E055EB
:10030000FE4F2491FC01E451FE4F3491FC01E85270
:10031000FE4FE491EE23C9F0222339F0233001F19E
:10032000A8F4213019F1223029F1F0E0EE0FFF1F7F
:10033000E253FE4FA591B4918FB7F894EC916111FF
:1003400026C030953E233C938FBF08952730A9F0F7
:100350002830C9F0243049F7809180008F7D03C098
:10036000809180008F7780938000DFCF84B58F7776
:1003700084BDDBCF84B58F7DFBCF8091B0008F77BC
:100380008093B000D2CF8091B0008F7DF9CF3E2B0B
:10039000DACFCF93DF9390E0FC01E451FE4F24913C
:1003A00088529E4FFC0184918823C9F090E0880F09
:1003B000991FFC01EA55FE4FA591B491FC01E2534F
:1003C000FE4FC591D49161110DC09FB7F8948C91E7
:1003D000209582238C938881282328839FBFDF91D7
:1003E000CF910895623051F49FB7F8943C91822FD9
:1003F000809583238C93E8812E2BEFCF8FB7F894D1
:10040000EC912E2B2C938FBFEACF8E50806480937B
:100410007C0080917A00806480937A0080917A00D9
:1004200086FDFCCF809178009091790008953FB7C8
:10043000F89480916C0290916D02A0916E02B0913F
:100440006F0226B5A89B05C02F3F19F00196A11D8C
:10045000B11D3FBFBA2FA92F982F8827BC01CD010E
:10046000620F711D811D911D42E0660F771F881F6D
:10047000991F4A95D1F708958F929F92AF92BF929C
:10048000CF92DF92EF92FF924B015C010E94170224
:100490006B017C010E9417026C197D098E099F096E
:1004A000683E734081059105A8F321E0821A910806
:1004B000A108B10888EEC80E83E0D81EE11CF11C2B
:1004C00081149104A104B10429F7FF90EF90DF900B
:1004D000CF90BF90AF909F908F9008952FB7F894D2
:1004E000609168027091690280916A0290916B023A
:1004F0002FBF0895CF92DF92EF92FF920F931F9339
:10050000CF93DF93CDB7DEB7C054D1400FB6F89488
:10051000DEBF0FBECDBF0E946E020091E0031091BE
:10052000E1032091E2033091E3036B017C01C01AE7
:10053000D10AE20AF30A97018601003D174021051E
:10054000310590F48091E803C05CDE4F0FB6F8945B
:10055000DEBF0FBECDBFDF91CF911F910F91FF90F6
:10056000EF90DF90CF9008956093E0037093E103E4
:100570008093E2039093E3031092DB031092DA037B
:100580001092D9031092D8031092D70361E08091A2
:10059000DC030E947D016AEF70E080E090E00E9441
:1005A0003C0261E08091DC030E94C90160E080911F
:1005B000DC030E947D0164E170E080E090E00E9435
:1005C0003C02F89461E08091DC030E947D018BE99C
:1005D00090E00197F1F762E08091DC030E94C9018D
:1005E00083E290E00197F1F780E00E942C01672BF5
:1005F000682B692B29F41092E803789480E0A4CF4B
:1006000081E00E942C01672B682B692BA1F38E01DE
:100610000F5F1F4F6E018FEBC81A8EEFD80A78015B
:1006200080E00E942C01F7016083718382839383B1
:1006300081E00E942C01F701648375838683978390
:10064000F8E0EF0EF11CEC14FD0451F7789430E063
:1006500020E0F801C080D180E280F38044815581A0
:1006600066817781C114D104E104F10429F04115B8
:1006700051056105710519F41092E803BFCFF90126
:1006800083E0F595E7958A95E1F7E952FC4F808183
:10069000880FC416D506E606F70610F180832F5F93
:1006A0003F4F085F1F4F2832310599F64091DB0319
:1006B0002091D7038091D803280F3327331F8091CF
:1006C000D903280F311D8091DA03820F932F911DDA
:1006D00099274817190681F681E08093E80334CF03
:1006E0008160DCCF089508950895DC01ED91FC91BF
:1006F0000190F081E02D0994AF92BF92CF92DF92EA
:10070000EF92FF920F931F93CF93DF936C017B01C6
:100710008B01040F151FEB015E01AE18BF08C01757
:10072000D10759F06991D601ED91FC910190F081CA
:10073000E02DC6010995892B79F7C501DF91CF918D
:100740001F910F91FF90EF90DF90CF90BF90AF90EF
:100750000895FC01538D448D252F30E0842F90E0C7
:10076000821B930B541710F0CF96089501970895AC
:10077000FC01918D828D981761F0A28DAE0FBF2F75
:10078000B11D5D968C91928D9F5F9F73928F90E0CB
:1007900008958FEF9FEF0895FC01918D828D98173A
:1007A00031F0828DE80FF11D858D90E008958FEF77
:1007B0009FEF0895FC01918D228D892F90E0805C40
:1007C0009F4F821B91098F739927089582EE92E0C3
:1007D0000E94DA0321E0892B09F420E0822F08959A
:1007E00080E090E0892B29F00E94E60381110C94AF
:1007F00000000895FC01A48DA80FB92FB11DA35AC4
:10080000BF4F2C91848D90E001968F739927848F30
:10081000A689B7892C93A089B1898C918370806453
:100820008C93938D848D981306C00288F389E02DF4
:1008300080818F7D80830895EF92FF920F931F93A5
:10084000CF93DF93EC0181E0888F9B8D8C8D981383
:100850001AC0E889F989808185FF15C09FB7F8948F
:10086000EE89FF896083E889F989808183708064DB
:1008700080839FBF81E090E0DF91CF911F910F9126
:10088000FF90EF900895F62E0B8D10E00F5F1F4F35
:100890000F731127E02E8C8D8E110CC00FB607FC44
:1008A000FACFE889F989808185FFF5CFCE010E94D2
:1008B000FA03F1CFEB8DEC0FFD2FF11DE35AFF4F43
:1008C000F0829FB7F8940B8FEA89FB898081806260
:1008D000CFCF0F931F93CF93DF938C01D0E0C0E075
:1008E000F801EC0FFD1F6491662341F082EE92E067
:1008F0000E941C04892B11F02196F2CFCE01DF91CA
:10090000CF911F910F910895CF93DF93EC01888DC4
:100910008823B9F0AA89BB89E889F9898C9185FD7A
:1009200003C0808186FD0DC00FB607FCF7CF8C9108
:1009300085FFF2CF808185FFEDCFCE010E94FA03C3
:10094000E9CFDF91CF91089520913702260F332709
:10095000331F21323105ECF42091B802FC0190E004
:1009600080E0243069F082E00895A091370221915F
:10097000AC01495E5D4FA40FB52FB11D2C930196BC
:10098000861798F380913702680F6093370280E0F2
:10099000089581E008951092B80281E08093B70233
:1009A0001092920261E082E10E947D0161E083E1A8
:1009B0000E947D01E9EBF0E080818E7F8083808161
:1009C0008D7F808388E48093B80085E48093BC00A9
:1009D0000895CF93DF9391E0909316028823B9F0A6
:1009E000C091B800D091BA008091BC008A7B8093FE
:1009F000BC0060E082E10E947D0160E083E10E9432
:100A00007D010E94CB04D093BA00C093B800DF915F
:100A1000CF9108958F929F92AF92BF92CF92DF9223
:100A2000EF92FF920F931F93CF93DF93D091E10248
:100A3000D13208F0D7C0182FC091E0020E941702EF
:100A40006B017C018091B80281116BC082E08093C0
:100A5000B8021093B7028FEF8093B6021092B502DE
:100A6000D093B402A0ECB2E0E4E9F2E080E0D81365
:100A700091C01092930280919302CC0FC82BC09327
:100A8000930280919202813009F088C01092920204
:100A90000E9417026B017C01809193028093BB003E
:100AA0008091BA029091BB02A091BC02B091BD02AC
:100AB000892B8A2B8B2BA1F00E9417020091BA027E
:100AC0001091BB022091BC023091BD026C197D09CE
:100AD0008E099F09061717072807390708F442C02F
:100AE0008091BC0083FDD8CF85EC8093BC000E9430
:100AF00017026B017C018091B802823009F450C06A
:100B00008091B6028F3F09F46FC08091B6028032A7
:100B100009F46CC08091B602803309F469C084E0A6
:100B200026C08091BA029091BB02A091BC02B09104
:100B3000BD02892B8A2B8B2B09F484CF0E941702CC
:100B40008090BA029090BB02A090BC02B090BD020F
:100B50006C197D098E099F0986169706A806B906A5
:100B600008F070CF8091B9020E94E90485E01092EC
:100B7000BF021092E1021092BE02DF91CF911F914D
:100B80000F91FF90EF90DF90CF90BF90AF909F902C
:100B90008F9008959D9191938F5F69CF85EEA5CF3A
:100BA0008091BA029091BB02A091BC02B091BD02AB
:100BB000892B8A2B8B2B09F49ECF0E941702009160
:100BC000BA021091BB022091BC023091BD026C1997
:100BD0007D098E099F09061717072807390708F0AE
:100BE0008ACFC0CF81E0C3CF80E0C1CF82E0BFCF4A
:100BF00083E0BDCF0895E091710280917002E81703
:100C000030F4F0E0EE58FD4F808190E008958FEFD2
:100C10009FEF089590917102809170022FEF3FEF46
:100C2000981748F4E92FF0E0EE58FD4F208130E0AE
:100C30009F5F90937102C901089580917002909115
:100C40007102891B990B0895CF92DF92EF92FF9268
:100C50000F931F93CF93DF937C01CB018A012091E7
:100C6000BE02222389F0EB016B01C40ED51ECC1508
:100C7000DD0569F06991D701ED91FC910190F0815A
:100C8000E02DC7010995F3CF642F0E94A404C80189
:100C9000DF91CF911F910F91FF90EF90DF90CF9058
:100CA0000895CF93DF931F92CDB7DEB7698320916C
:100CB000BE022223F9F02091E102203258F021E017
:100CC00030E0FC013383228390E080E00F90DF91DD
:100CD000CF9108958091BF02E82FF0E0E054FD4FDE
:100CE000998190838F5F8093BF028093E10281E0BE
:100CF00090E0ECCF61E0CE0101960E94A404F7CF12
:100D0000FC0183858F3F19F061E00C947D0108950B
:100D1000FC0180819181892B39F0A281B3819C9162
:100D200011968C919CBD8DBD83858F3F19F060E03D
:100D30000C947D010895AF92BF92CF92DF92EF9213
:100D4000FF920F931F93CF93DF93EC0188819981DA
:100D5000892B89F06EBD0DB407FEFDCFBEB48B2D7F
:100D6000DF91CF911F910F91FF90EF90DF90CF9087
:100D7000BF90AF9008958885998511E0892B09F07F
:100D800010E8AA24A394862F812309F0A12C062F12
:100D90002C813D814E815F8160E271EA87E090E0C5
:100DA0000E94591BF22EB02EE12CC22ED12CFF2016
:100DB00019F0C6010E9472018A85877F09F042C03E
:100DC0008D858F3F89F0902F912381E009F480E099
:100DD0008A1551F0EF85F8898F89992369F19081FF
:100DE000892B8083AA24A394E989FA898081998D2B
:100DF000892B8083FF2019F0C6010E9472018E8525
:100E00008F3F39F0EB89FC898081988D892309F027
:100E1000E12AE989FA899081898D809589238083E7
:100E20008E858F3F09F0BE2C88859985892BB9F571
:100E3000110F1111BCCF93CF9081809589238083AE
:100E4000A12CD2CFE989FA898081998D892B808361
:100E5000FF2019F0C6010E9472018D858F3F49F075
:100E6000EF85F8898F89902F9123A9F09081892BA4
:100E70008083E989FA899081898D8095892380838F
:100E80008E858F3F69F2EB89FC898081988D89235B
:100E900039F2E12AC5CF908180958923E9CF169553
:100EA000C8CFCF92DF92EF92FF920F931F93CF9311
:100EB000DF938C01EB016A0179010E948806688149
:100EC000C8010E949B06E601EC0CFD1C6FEFC801F7
:100ED0000E949B068993CE15DF05C1F7C8010E94C9
:100EE000800681E0DF91CF911F910F91FF90EF90ED
:100EF000DF90CF9008951F93CF93DF93EA01122FD5
:100F0000DC0111968D919C91DC01ED91FC910280A8
:100F1000F381E02D0995C817D90729F4812F0E9484
:100F20000A0591E0811190E0892FDF91CF911F9107
:100F30000895CF93DF93EC018B818823A1F0888102
:100F400091E09093BE028093E0021092BF02109253
:100F5000E10281E00E940A0591E0811190E0892F71
:100F6000DF91CF9108951092710210927002109249
:100F7000BF021092E1020E94CB0483E793E09093BA
:100F8000600280935F0284E793E090936202809313
:100F9000610281E08B83CE010E949907982F811115
:100FA000CECFDDCF0895089520915C0230915D028F
:100FB0002817390771F490915A0280915B029817B3
:100FC00041F0E0915A02F0E0EA56FE4F808190E055
:100FD00008958FEF9FEF0895EF92FF920F931F9365
:100FE000CF93DF93DC015C96ED90FC905D97E1146C
:100FF000F10479F481E090E013969C938E9312971C
:1010000090E080E0DF91CF911F910F91FF90EF90E2
:1010100008955196ED91FC91529750968C9150976E
:10102000982F90950FB75E962C915E97122F1270A5
:1010300021FD6095F8942081112319F1282B20833C
:10104000E7012197F1F728E0462F50E0308160FF5B
:101050001AC0382B3083E7012197F1F7BA01759553
:101060006795215089F7112381F08081892380833E
:101070000FBF5C968D919C910197F1F781E090E014
:10108000C1CF2923DCCF3923E5CF9081892BEFCF46
:1010900020915C0230915D022817390761F480913C
:1010A0005B0220915A0290E080589F4F821B910969
:1010B0008F779927089590E080E0089520915C0251
:1010C00030915D0228173907B9F490915A02809146
:1010D0005B02981789F0E0915A02F0E0EA56FE4F61
:1010E000808120915A0230E02F5F3F4F2F773327C6
:1010F00020935A0290E008958FEF9FEF08950F9389
:101100001F930E946E026093C0037093C10380938B
:10111000C2039093C30388EB93E00E945E0897FF9D
:101120001DC00E946E020091C0031091C103209166
:10113000C2033091C303601B710B820B930B0091B0
:10114000BC031091BD032091BE033091BF03601713
:10115000710782079307F8F28FEF9FEF1F910F91AE
:10116000089590E080E0089588EB93E00E9448089D
:10117000181619062CF488EB93E00E945E08F4CF51
:1011800008950F931F93CF93DF9300D0CDB7DEB7B1
:101190006A83E0918D03F0918E033097F9F0898393
:1011A00084819581029798F0808191E09093BE02AE
:1011B0008093E0021092BF021092E10221E042E02F
:1011C00050E0BE016F5F7F4FCF010E947B070F9001
:1011D0000F90DF91CF911F910F9108958F778983A1
:1011E00000918F0310919003C8010E9488066981C5
:1011F000C8010E949B066A81C8010E949B06C80123
:101200000E948006E4CFCF93DF93C7EBD3E08770D3
:10121000886E8883E6EBF3E0962F9770990F990F0D
:10122000990F8081807C242F2770892B822B8083CB
:1012300095E0440F551F9A95E1F787FB882780F9C1
:10124000482B660F771F660F771F642B85EF0E9470
:10125000C1088881682F677090E2699FB0011124EE
:10126000282F269526952695277094E0299F900192
:101270001124622B8295869586958370682B84EF66
:10128000DF91CF910C94C1082F923F924F925F92C1
:101290006F927F928F929F92AF92BF92CF92DF9286
:1012A000EF92FF920F931F93CF93DF93DC0114967D
:1012B000ED91FC911597EF2B09F425C169012A01E5
:1012C000EC01888191E09093BE028093E00210923D
:1012D000BF021092E10220E041E050E0CD010E9407
:1012E0007B07782E882309F40EC1F12CE12C3324DE
:1012F00033948C819D8186010E191F0980179107F7
:1013000008F48C0128800E9417024B015C01809137
:10131000B802811173C0602EB0E2B01710F480E201
:10132000682E3092B80221E0C601801B910BE816AE
:10133000F90608F420E02093B702EFEFE093B6023D
:101340001092B5028FEF860D8093B4023092930213
:1013500080919302220C282A20929302809192027B
:10136000813009F090C0109292020E9417024B0146
:101370005C01809193028093BB008091BA029091AE
:10138000BB02A091BC02B091BD02892B8A2B8B2B92
:10139000A1F00E9417022091BA023091BB02409145
:1013A000BC025091BD02681979098A099B09261768
:1013B00037074807590708F442C08091BC0083FDF5
:1013C000D8CFF5ECF093BC000E9417024B015C01F2
:1013D0008091B802813009F45AC08091B502861517
:1013E00010F46090B502A4E9B2E0E2E7F2E080E038
:1013F000861551F19D9191938F5FFACF8091BA023A
:101400009091BB02A091BC02B091BD02892B8A2BA6
:101410008B2B09F47CCF0E9417022091BA023091E5
:10142000BB024091BC025091BD02681979098A093A
:101430009B09261737074807590708F068CF80919E
:10144000B9020E94E904612C10927102609270024C
:101450006016110609F057C042018E0C9F1C540102
:10146000C501881999098017910798F589819A8192
:10147000DC01ED91FC910284F385E02D0995F501E5
:1014800081935F01EDCF85EE8093BC009DCF80916D
:10149000BA029091BB02A091BC02B091BD02892B0F
:1014A0008A2B8B2B09F494CF0E9417022091BA0249
:1014B0003091BB024091BC025091BD02681979097C
:1014C0008A099B09261737074807590708F080CF74
:1014D000B6CFE00EF11EEC14FD0408F40ACF872D00
:1014E000DF91CF911F910F91FF90EF90DF90CF9000
:1014F000BF90AF909F908F907F906F905F904F9034
:101500003F902F900895712CEACFCF93DF9300D0B6
:10151000CDB7DEB7E0918D03F0918E03898322E091
:1015200030E0AE014F5F5F4FBA01309751F0CF010D
:101530000E94440989819A810F900F90DF91CF9189
:10154000089580918F03909190030E945107F2CFEC
:10155000CF93DF9300D01F92CDB7DEB7FC0182811D
:101560009381698323E030E0AE014F5F5F4FBA01A2
:101570000097A1F00E94440929816A8170E090E0FF
:1015800080E0982F872F762F6627822B2B81622B66
:101590000F900F900F90DF91CF91089584819581E6
:1015A0000E945107E9CF8F929F92AF92BF92CF9244
:1015B000DF92EF92FF920F931F93CF93DF93EC0193
:1015C0006AEF0E94A80A0B891C8930E020E0C72E30
:1015D000D82EE92EFF24E7FCFA94C01AD10AE20AB9
:1015E000F30A57E095958795779567955A95D1F7C2
:1015F000000F111F221F331F4B015C01801A910A3B
:10160000A20AB30AA5019401AD89BE890E941A1BE2
:101610004B015C01FBE0B594A79497948794FA95ED
:10162000D1F7A7019601C701B6010E947B1E9B015D
:10163000AC01ACE05595479537952795AA95D1F71C
:10164000AF89B88D0E941A1B9B01AC01BEE0559575
:10165000479537952795BA95D1F7280D391D4A1D1D
:101660005B1D2F87388B498B5A8BA5E0B0E00E9419
:101670000F1B60587F4F8F4F9F4F672F782F892FF9
:10168000992787FD9A950E94D31920E030E048EC15
:1016900052E40E94F71BDF91CF911F910F91FF90B1
:1016A000EF90DF90CF90BF90AF909F908F90089574
:1016B0002F923F924F925F926F927F928F929F9262
:1016C000AF92BF92CF92DF92EF92FF920F931F9350
:1016D000CF93DF93CDB7DEB76D970FB6F894DEBF2B
:1016E0000FBECDBF9D8F8C8FFC0183859485A58512
:1016F000B685892B8A2B8B2B19F0CF010E94D30A38
:1017000067EF8C8D9D8D0E94A80A688F798F8A8FD4
:101710009B8FEC8DFD8D87859089A189B2896C01A5
:101720007D01FF0CCC08DC2C76019C01AD016C2DF9
:101730007C2D8C2D9C2D345F41405109610971092C
:101740008109910929873A874B875C873B014C01C6
:1017500059016A017B018C010E94921E322E232EB8
:101760004A8B5B8B6C8B7D8B8E8B9F8BAC8DBD8DF9
:101770005C963C915C975B962C91932F990F990BFB
:10178000492F592F692F792F892F0E94921E0CE023
:101790000E948A1F522E39834D875E876F87788B10
:1017A000898B492EEC8DFD8D368D258D932F990FCC
:1017B000990BA32CB22CCA88DB88EC88FD880E8993
:1017C0001F89492F592F692F792F892F0E94921E27
:1017D00008E00E94A31FA52CB980CD84DE84EF848D
:1017E000F8880989142D0E94C01F70588F4F9F4F91
:1017F000AC8DBD8D5996ED91FC915F01D12CC12C22
:10180000E12CF12C8701E983BA82CB82DC82ED8264
:10181000FE820F831887C12CD12CE12CF12C00E023
:1018200010E00E94921E01E20E94A31F2983532E02
:101830004D875E876F87788B898B492EA0E00E9449
:10184000D21F09F43DC1AC8DBD8D94963C91949707
:1018500093962C91932F990F990BA32CB22CCA8895
:10186000DB88EC88FD880E891F89492F592F692F45
:10187000792F892F0E94921E19014A8B5B8B6C8BEA
:101880007D8B8E8B9F8BEC8DFD8D32A121A1932FB3
:10189000990F990BA984BA84CB84DC8473018401E9
:1018A000492F592F692F792F892F0E94921E01E10C
:1018B0000E948A1F5101CA88DB88EC88FD880E8946
:1018C0001F890E94C01F59016A017B01282E192F10
:1018D000488D598D6A8D7B8D84E0759567955795F8
:1018E00047958A95D1F780E090E0A0E1B0E0841BB5
:1018F000950BA60BB70B3C014D01990C6608762C95
:1019000043019C01AD01662D762D862D962D0FE1AC
:101910000E948A1F722E832E942E652EB62FA72F1B
:10192000382E9987EC8DFD8D30A1278D932F990F3F
:10193000990B492F592F692F792F892F03E20E9484
:101940008A1F022D0E94C01F59016A017B018C0170
:10195000272D382D492D562D6B2F7A2F832D9985C4
:101960000E94C91FE5E3AE2EFCE0BF2EC12CD12C96
:10197000E12CF12C00E010E00E94921EA980B52C11
:10198000CD84DE84EF84F8880989142D0E94EC1E32
:1019900029873A874B875C8769837D878E879F87F6
:1019A0000DE00E94A31F922E832E742E652E562EBC
:1019B000472E382E292EAC8DBD8D9A963C919A9744
:1019C00099962C91932F990F990BA92CB82CC72C71
:1019D000D62CE52CF42C032D122D492F592F692FCD
:1019E000792F892F0E94921E0E94921E09E10E9467
:1019F000A31FA984BA84CB84DC84E980FD840E858E
:101A00001F850E94C01F19012A013B014C01EC8D6A
:101A1000FD8D30A527A1932F990F990B492F592F91
:101A2000692F792F892F0E94921E03E10E94A31F24
:101A300059016A017B018C019101A201B301C4012A
:101A40000E94C01F08E00E94A31F59016A017B0188
:101A5000E82F192FAC8DBD8D96963C919697959653
:101A60002C91932F990F990B492F592F692F792F6B
:101A7000892F04E00E948A1F0E2F0E94C01F0E941F
:101A8000981C20E030E040E85BE30E94321A6D963B
:101A90000FB6F894DEBF0FBECDBFDF91CF911F917F
:101AA0000F91FF90EF90DF90CF90BF90AF909F90FD
:101AB0008F907F906F905F904F903F902F90089500
:101AC00060E070E0CB01E3CF0C9480200C94802088
:101AD000FB0101900020E9F73197AF01461B570B3E
:101AE000DC01ED91FC910280F381E02D09948F924D
:101AF0009F92AF92BF92EF92FF920F931F93CF935B
:101B0000DF93CDB7DEB7A1970FB6F894DEBF0FBE57
:101B1000CDBF7C01FA01CB0119A2223008F42AE0E2
:101B20008E010F5D1F4F822E912CB12CA12CBF0175
:101B3000A50194010E94591BF901CA016A300CF5F4
:101B4000605DD8016E938D01232B242B252B79F713
:101B500090E080E0109721F0BD01C7010E94680D60
:101B6000A1960FB6F894DEBF0FBECDBFDF91CF9127
:101B70001F910F91FF90EF90BF90AF909F908F902B
:101B80000895695CDECFCF92DF92EF92FF92CF9300
:101B9000DF936C01990FEE08FF08F7FE1BC06DE2A2
:101BA00082EE92E00E947503EC0144275527BA01AA
:101BB0004C195D096E097F092AE082EE92E00E94CD
:101BC000770D8C0F9D1FDF91CF91FF90EF90DF90ED
:101BD000CF9008952AE0B701A60182EE92E0DF914E
:101BE000CF91FF90EF90DF90CF900C94770DCF9333
:101BF000DF93BC0182EE92E00E94680DEC0168E583
:101C000071E082EE92E00E94680D8C0F9D1FDF91C3
:101C1000CF9108952F923F924F925F926F927F9251
:101C20008F929F92AF92BF92CF92DF92EF92FF92EC
:101C30001F93CF93DF93EC016A017B01722EAB01FE
:101C40009601CB01B6010E94411D6BE571E0811147
:101C500026C046015701E894B7F82FEF3FEF4FE752
:101C60005FE7C501B4010E94411D81110CC02FEF37
:101C70003FEF4FE75FE7C501B4010E94CC196FE564
:101C800071E0181664F02FEF3FEF4FE75FE4C701F4
:101C9000B6010E94EC1C1816B4F463E671E0CE01A4
:101CA000DF91CF911F91FF90EF90DF90CF90BF9089
:101CB000AF909F908F907F906F905F904F903F90EC
:101CC0002F900C94680D2FEF3FEF4FE75FECC701AB
:101CD000B6010E94CC1987FDE0CF20E030E0A901D9
:101CE000C701B6010E94CC19312C212C87FF09C0F5
:101CF0006DE2CE010E9475031C01F7FAF094F7F82B
:101D0000F09410E060E070E080E09FE3711641F035
:101D100020E030E040E251E40E94F71B1F5FF6CF65
:101D2000A70196010E948B1B2B013C010E94691C9C
:101D30004B015C012AE0BC01A401CE010E94770D99
:101D40007C01E20CF31C1123C1F1C501B4010E9416
:101D5000D1199B01AC01C301B2010E948A1B4B0146
:101D60005C016EE2CE010E947503E80EF91E11506F
:101D700020F120E030E040E251E4C501B4010E94CE
:101D8000321A2B013C010E94691C4B01B12CA12C81
:101D90002AE0B501A401CE010E94770DE80EF91EDC
:101DA000C501B4010E94D1199B01AC01C301B2016C
:101DB0000E948A1B4B015C01DACFC701DF91CF91F2
:101DC0001F91FF90EF90DF90CF90BF90AF909F90CA
:101DD0008F907F906F905F904F903F902F900895DD
:101DE0000F931F93CF93DF93EC0188819981009724
:101DF00059F02A813B812617370730F081E0DF91C7
:101E0000CF911F910F9108958B016F5F7F4F0E94BB
:101E10000921009759F0998388831B830A832C81B9
:101E20003D81232B59F7FC011082E8CF80E0E7CFFA
:101E300085ED8093BC008091BA029091BB02A09185
:101E4000BC02B091BD020796A11DB11D23E0B6955D
:101E5000A795979587952A95D1F72091BC0024FDE9
:101E600003C01092B80208954091BA025091BB028B
:101E70006091BC027091BD02452B462B472B69F344
:101E80000097A105B10541F02AE22A95F1F700C0BB
:101E90000197A109B109E1CF8091B9020C94E9043D
:101EA0000F931F93CF93DF938C01EB01FB013496CB
:101EB00080E2DF011D928A95E9F784E290E0A0E0DC
:101EC000B0E088839983AA83BB83F80182819381E0
:101ED000092E000CAA0BBB0B8C839D83AE83BF83A2
:101EE00086E090E0A0E0B0E088879987AA87BB876A
:101EF0000E946E02688B798B8A8B9B8BD80114961B
:101F00008D919C91FC014385548565857685452B93
:101F1000462B472B91F00E94580B20E030E048EC14
:101F200052E40E94F71B6C8B7D8B8E8B9F8B81E024
:101F3000DF91CF911F910F91089560E070E080ECE8
:101F40009FE7EBCF0F931F93CF93DF938C01EB01B0
:101F5000FB01349680E2DF011D928A95E9F784E265
:101F600090E0A0E0B0E088839983AA83BB83F80166
:101F700082819381092E000CAA0BBB0B8C839D835D
:101F8000AE83BF838DE090E0A0E0B0E088879987C2
:101F9000AA87BB870E946E02688B798B8A8B9B8B8A
:101FA000D80114968D919C91FC01438554856585DB
:101FB0007685452B462B472B61F00E94D30A6C8B0C
:101FC0007D8B8E8B9F8B81E0DF91CF911F910F9145
:101FD000089560E070E080EC9FE7F1CF0F931F93CE
:101FE000CF93DF938C01EB0188E2FB0111928A957C
:101FF000E9F74BE050E067E671E0CE010E94D621A0
:102000001B8681E090E0A0E0B0E08C879D87AE87E2
:10201000BF87F80182819381092E000CAA0BBB0BAC
:10202000888B998BAA8BBB8B86E090E0A0E0B0E018
:102030008C8B9D8BAE8BBF8B1CA21DA21EA21FA2E0
:1020400080E090E0A6E9B3E48C8F9D8FAE8FBF8FC8
:1020500080E090E8A9E8B4E4888F998FAA8FBB8FBD
:1020600086EA9BE9A4E4BCE388A399A3AAA3BBA343
:10207000DF91CF911F910F9108950F931F93CF93ED
:10208000DF938C01EB0188E2FB0111928A95E9F75D
:102090004BE050E067E671E0CE010E94D6211B863E
:1020A00081E090E0A0E0B0E08C879D87AE87BF879D
:1020B000F80182819381092E000CAA0BBB0B888B3F
:1020C000998BAA8BBB8B8DE090E0A0E0B0E08C8B6D
:1020D0009D8BAE8BBF8B1CA21DA21EA21FA280E0F7
:1020E00090E0A0E2B2EC8C8F9D8FAE8FBF8F80E02E
:1020F00090E0AAEAB2E4888F998FAA8FBB8F8AE01A
:1021000097EDA3E2BCE388A399A3AAA3BBA3DF91A5
:10211000CF911F910F9108951F920F920FB60F92BA
:1021200011242F933F938F939F93AF93BF938091ED
:10213000680290916902A0916A02B0916B0230919D
:10214000670223E0230F2D3758F50196A11DB11D1D
:10215000209367028093680290936902A0936A02B9
:10216000B0936B0280916C0290916D02A0916E020F
:10217000B0916F020196A11DB11D80936C029093E6
:102180006D02A0936E02B0936F02BF91AF919F91C9
:102190008F913F912F910F900FBE0F901F90189528
:1021A00026E8230F0296A11DB11DD2CF1F920F92D8
:1021B0000FB60F9211242F933F934F935F936F931A
:1021C0007F938F939F93AF93BF93EF93FF9382EE91
:1021D00092E00E94FA03FF91EF91BF91AF919F911E
:1021E0008F917F916F915F914F913F912F910F90C0
:1021F0000FBE0F901F9018951F920F920FB60F925F
:1022000011242F938F939F93EF93FF93E091F2020A
:10221000F091F3028081E091F802F091F90282FDE1
:102220001BC090818091FB028F5F8F732091FC0215
:10223000821741F0E091FB02F0E0EE51FD4F958FE7
:102240008093FB02FF91EF919F918F912F910F90BF
:102250000FBE0F901F9018958081F4CF1F920F92A0
:102260000FB60F9211242F933F934F935F936F9369
:102270007F938F939F93AF93BF93EF93FF9380913F
:10228000B900887F803609F44AC0F0F5883209F435
:10229000A7C018F5803109F49BC0B8F4882309F46D
:1022A000F9C0883009F494C0FF91EF91BF91AF91CC
:1022B0009F918F917F916F915F914F913F912F915E
:1022C0000F900FBE0F901F901895883109F488C0A9
:1022D000803251F78093B60214C0803409F49DC057
:1022E00040F48033B9F38833F9F68093B60285EC75
:1022F000B0C0803509F485C0883509F496C08834AB
:1023000099F60E94180FD0CF883909F48CC038F59F
:10231000883729F050F4883611F0803729F683E0A9
:102320008093B8021092590257C0883809F47BC0D4
:10233000803919F0803809F0B7CF80915902803286
:1023400008F071C0E091590281E08E0F809359022C
:102350008091BB00F0E0E75CFD4F80833DC0803B97
:1023600039F0E0F4803A09F479C0883A09F09CCF5A
:1023700084E08093B8021092380210923702E09104
:102380005F02F091600209958091370281110FC0C0
:1023900081E0809337021092170209C0803C09F453
:1023A000A6CF883C09F4A3CF883B09F07DCFE0910C
:1023B000380281E08E0F80933802F0E0E95EFD4F35
:1023C00080818093BB00909138028091370229C0B0
:1023D000809193028093BB0085EC8093BC0064CF16
:1023E0009091B5028091B402981758F5E091B5022A
:1023F00081E08E0F8093B502F0E0EC56FD4F8081B6
:10240000E9CFE091B50281E08E0F8093B502809113
:10241000BB00F0E0EC56FD4F80839091B5028091B7
:10242000B4029817C8F285E8D8CFE091B50281E0F0
:102430008E0F8093B5028091BB00F0E0EC56FD4F0B
:1024400080838091B70281115CCF81E080939202FA
:1024500084EA8093BC001092B80226CF85EC80936A
:10246000BC001092B80280915902803230F4E091A1
:102470005902F0E0E75CFD4F10826091590270E074
:10248000E0916102F091620289E392E00995109275
:1024900059020ACF1092B60234CF1F920F920FB694
:1024A0000F9211242F933F934F935F936F937F93DA
:1024B0008F939F93AF93BF93EF93FF93E0915C0251
:1024C000F0915D02309749F0A685B7858585968D98
:1024D00091FF14C09C918923A1F4FF91EF91BF91CA
:1024E000AF919F918F917F916F915F914F913F91AC
:1024F0002F910F900FBE0F901F9018959C918923DC
:1025000061F7A389B4899C918589809589238C93EF
:10251000868997890197F1F7608D718DA685B785BA
:10252000558538E020E0CB010197F1F7822F90E04C
:1025300095958795282F4C91452309F020683150B7
:1025400091F7868D81FD209580915B0290E0019648
:102550008F77992730915A02381799F0A0915B0232
:10256000B0E0AA56BE4F2C9380935B02828D938D70
:102570000197F1F7A389B4898C919589892B8C9364
:10258000ACCF868D8160868FF1CFCF93DF93109291
:10259000E5021092E40288EE93E0A0E0B0E08093C0
:1025A000E6029093E702A093E802B093E9022AE0E2
:1025B00031E03093E3022093E20225EC30E03093E7
:1025C000EF022093EE0224EC30E03093F1022093EE
:1025D000F00220EC30E03093F3022093F20221EC81
:1025E00030E03093F5022093F40222EC30E0309397
:1025F000F7022093F60226EC30E03093F9022093A4
:10260000F8021092FB021092FC021092FD0210924E
:10261000FE021092820310928103809383039093B1
:102620008403A0938503B09386032CE131E03093BB
:10263000800320937F0324E02093DC0326E1209392
:10264000DD03E0EFF1E0E491E093DE03ECEDF1E097
:10265000E491E093DF0340E85EE360E070E04093E4
:10266000E4035093E5036093E6037093E70310924D
:10267000BB031092BA038093BC039093BD03A09355
:10268000BE03B093BF038AE491E09093B9038093B3
:10269000B8031092CF031092CE031092D103109280
:1026A000D0031092D3031092D2031092D50310924C
:1026B000D4036091D6036E7F6D7F6093D6036695D9
:1026C000617081E068278BE00E947D0161E08BE012
:1026D0000E94C901E7EFF1E0E491E093C803E3EE63
:1026E000F1E0E491F0E0EE0FFF1FE253FE4F859121
:1026F00094919093CA038093C90360E08AE00E949A
:10270000C9018091D60381FD04C061E08AE00E9486
:102710007D018AE08093C403E6EFF1E0E491E09369
:10272000C503E2EEF1E0E491F0E0EE0FFF1FEC53A1
:10273000FE4F859194919093C7038093C603CBE895
:10274000D3E010928E0310928D031092900310929A
:102750008F03109296031092970310929803109291
:1027600099031092B6031092B7038FE793E090930A
:102770008C0380938B0386E090E00E94E41FFC01B1
:102780008CE391E09183808388E191E0938382835D
:10279000D583C483F0939203E093910386E090E0A5
:1027A0000E94E41FFC018EE291E0918380831382FA
:1027B0001282D583C483F0939403E0939303DF9153
:1027C000CF910895CF93DF93CDB7DEB7A4970FB61F
:1027D000F894DEBF0FBECDBF789484B5826084BD0F
:1027E00084B5816084BD85B5826085BD85B5816015
:1027F00085BD80916E00816080936E001092810093
:10280000809181008260809381008091810081604D
:10281000809381008091800081608093800080910E
:10282000B10084608093B1008091B000816080939A
:10283000B00080917A00846080937A0080917A0061
:10284000826080937A0080917A00816080937A0020
:1028500080917A00806880937A001092C10060E0D5
:102860008AE00E94C90161E08BE00E94C90160E03A
:1028700084E00E94C90160E08EE00E94C90162E02C
:102880008091DC030E94C90180E398EFAFEFBFEFB6
:102890008093E0039093E103A093E203B093E303FA
:1028A000E091F202F091F30282E08083E091EE0287
:1028B000F091EF021082E091F002F091F10280E1DC
:1028C00080831092FA02E091F602F091F70286E01E
:1028D0008083E091F402F091F50280818061808331
:1028E000E091F402F091F502808188608083E091AC
:1028F000F402F091F502808180688083E091F40217
:10290000F091F50280818F7D80831092D303109225
:10291000D2031092D1031092D0031092CF031092E1
:10292000CE038FE190E09093D5038093D4039091F0
:10293000C403963108F047C021E030E03093CF0364
:102940002093CE032DE130E03093D1032093D003C8
:102950002DE030E03093D3032093D2032091680020
:1029600084E0983048F031E09E3008F430E081E0B7
:1029700001C0880F3A95EAF7822B809368002DE614
:1029800030E0983050F02BE630E09E3030F02CE60E
:1029900030E0963110F030E020E03093CC0320930B
:1029A000CB03292F30E0983008F08CC081E001C0C3
:1029B000880F9A95EAF78093CD038091D403909184
:1029C000D5030197F1F78091D2039091D303892B1E
:1029D00049F1E0915C02F0915D0243E0E83BF407CD
:1029E00009F1309739F0A389B4899C918589809544
:1029F00089238C938091D6038E7F8093D603109287
:102A00005B0210925A0288EB93E090935D028093F0
:102A10005C02E091CB03F091CC0380819091CD03D7
:102A2000892B808300918F0310919003011511056C
:102A300009F055C080918D0390918E03009711F09D
:102A40000E94802086E090E00E94E41F8C0180912B
:102A50008B0390918C0326E7F80120839283818376
:102A6000138280E290E09583848310938E03009319
:102A70008D0310927102109270021092BF02109298
:102A8000E1020E94CB0483E793E09093600280937D
:102A90005F0284E793E0909362028093610281E099
:102AA000F8018383C8010E949907811160C08AEEF2
:102AB00090E00E94690468E571E082EE92E00E9475
:102AC000680DFFCF9E3040F42850310981E001C0ED
:102AD000880F2A95EAF76FCF2E503109F7CFF8010A
:102AE00083858F3F41F061E00E94C90161E0F801F8
:102AF00083850E947D01F80180819181892B09F4F1
:102B000053C1FFB6F89480915E02811127C0E2EEB6
:102B1000F1E08491E6EFF1E09491E82FF0E0EE0F20
:102B2000FF1FEA55FE4FA591B491EC91E92321F4E2
:102B300061E08AE00E947D0161E08AE00E94C901B3
:102B40008CB580618CBD8CB580648CBD61E08DE0FE
:102B50000E94C90161E08BE00E94C90180915E0280
:102B60008F5F80935E02FFBE81E0F801838F8091CA
:102B70008D0390918E03009709F438C120ED2983CD
:102B800021E030E0AE014F5F5F4FBA010E9444097F
:102B9000898190E0B0E0A0E0809396039093970342
:102BA000A0939803B093990388359105A105B105C9
:102BB00009F07DCF88E80E94850A90939F03809357
:102BC0009E038AE80E94850A9093A1038093A00344
:102BD0008CE80E94850A9093A3038093A2038EE859
:102BE0000E94850A9093A5038093A40380E90E9424
:102BF000850A9093A7038093A60382E90E94850A21
:102C00009093A9038093A80384E90E94850A909376
:102C1000AB038093AA0386E90E94850A9093AD03D3
:102C20008093AC0388E90E94850A9093AF03809358
:102C3000AE038AE90E94850A9093B1038093B003A2
:102C40008CE90E94850A9093B3038093B2038EE9C6
:102C50000E94850A9093B5038093B40380919603F4
:102C600090919703A0919803B0919903892B8A2B97
:102C70008B2B41F050E040E070E060E085E090E0B8
:102C80000E94030964E670E080E090E00E943C024C
:102C90008091960390919703A0919803B091990326
:102CA000892B8A2B8B2B41F044E050E064E070E0EC
:102CB00082E090E00E94030988248A9433E0932EF6
:102CC000A12CB12C40E0242E40E0342E88EB93E080
:102CD0000E944808181619060CF0F0C064E670E06F
:102CE00080E090E00E943C021E8E1D8E18A21F8E76
:102CF0001AA219A270E060E0CE014D960E94F00E7B
:102D00002D8D3E8D811181C02115310519F0C9012C
:102D10000E9480201E8E1D8E1AA219A218A21F8E3C
:102D200010E088EB93E00E944808181619060CF092
:102D3000AFC01A8219821C821B821E821D8270E023
:102D400060E0CE0101960E94F00E29813A81811146
:102D500064C02115310519F0C9010E9480201A8232
:102D600019821E821D821C821B820E947F0897FD91
:102D70005CC08BA31CA20D811E810F5F1F4FB80189
:102D8000CE0101960E94F00E882379F329813A81C1
:102D90008D819E81BE016D5D7F4F820F931F0E94CA
:102DA000CF211E830D83E1CF61E084850E94C9019C
:102DB000F80182858B7F60E009F061E084850E94E4
:102DC0007D01F80185858F3F41F061E00E94C901D6
:102DD00061E0F80185850E947D01F80186858F3FBD
:102DE00009F4C2CE60E00E94C901BECE80ED8983A5
:102DF00021E030E0AE014F5F5F4FBA0180918F0359
:102E0000909190030E945107C3CE1AA219A26AE5BD
:102E100071E0C9010E94CF2183CF1E821D826AE525
:102E200071E0C9010E94CF21A0CF8D8D9E8D0097AA
:102E3000F1F069817A8161157105B9F04F8D58A162
:102E40002D813E814217530780F00E94CF218D8152
:102E50009E819AA389A31E821D8289819A810097EF
:102E600011F00E94802011E05CCF0E9480208981B7
:102E70009A819E8F8D8F8B819C8198A38F8F8D815E
:102E80009E819AA389A31A8219821C821B82E3CF96
:102E9000112371F049A15AA16D8D7E8D82EE92E0D1
:102EA0000E947C0368E571E082EE92E00E94680D6A
:102EB0008D8D9E8D009711F00E9480200E946E02E1
:102EC00000916302109164022091650230916602C4
:102ED0006B017C01C01AD10AE20AF30A970186014C
:102EE00008391A432105310508F490C16093630243
:102EF0007093640280936502909366020E947A0246
:102F0000882341F08091DD038B3059F018F0855112
:102F1000823028F1C12CD12C20ECE22E2FE7F22EAA
:102F200009C06091D70370E090E080E00E94D11961
:102F30006B017C010E947A02882309F44BC08091C6
:102F4000DD038B3069F120F08551823008F46AC1CD
:102F5000412C512C90EC692E9FE7792E2AC060916C
:102F6000D70370E090E080E00E94D11920E030E0CB
:102F700040E853E40E94321A6B017C016091D8034F
:102F800070E090E080E00E94D319A70196010E94B2
:102F90008B1B2DEC3CEC4CEC5DE30E94321AC8CF4D
:102FA0006091D90370E090E080E00E94D1192B017C
:102FB0003C01A7019601C701B6010E94411D811184
:102FC00009C0A3019201C301B2010E94411D8823DF
:102FD00009F453C186E891E00E94690468E571E054
:102FE00082EE92E00E94680D8FE591E00E946904F4
:102FF0008091960390919703A0919803B0919903C3
:10300000892B8A2B8B2B09F45FC18BE893E00E94FC
:10301000D30A6B017C0122E0B701A60182EE92E0A7
:103020000E940A0E80E791E00E94F70DC986DA86B9
:10303000EB86FC8684E591E00E946904809196030A
:1030400090919703A0919803B0919903892B8A2BB3
:103050008B2B09F440C18BE893E00E94580B20E0D1
:1030600030E048EC52E40E94F71B6B017C0122E047
:10307000BC01A60182EE92E00E940A0E83E791E075
:103080000E94F70DCD86DE86EF86F88A82E491E015
:103090000E9469048091960390919703A0919803F0
:1030A000B0919903892B8A2B8B2B09F419C18BE8DA
:1030B00093E00E94580B20E030E048EC52E40E947C
:1030C000F71B2DE33AEE4EE754E40E94F71B21E094
:1030D0003EED42E45EE30E94F11C9B01AC0160E026
:1030E00070E080E89FE30E948A1B20E03AE24DE214
:1030F00057E40E94321A6B017C0122E0BC01A60158
:1031000082EE92E00E940A0E89E791E00E94F70D9C
:10311000C98ADA8AEB8AFC8A8EE00E9405028C0159
:1031200080E391E00E946904C8010E94C30D87E713
:1031300091E00E94F70DB801110F880B990B0E94C6
:10314000D3196D8B7E8B8F8B988F8FE00E94050239
:1031500024E630E0DC010E948B1EA50194010E9450
:10316000F01A69018EE191E00E946904C6010E9493
:10317000C30D8EE691E00E94F70DB601DD0C880BC1
:10318000990B0E94D319698F7A8F8B8F9C8F0E9425
:10319000B408CE0101967C0110E000E0F7014191F6
:1031A0005191619171917F0122E088EB93E00E943F
:1031B0000A0E0630110509F498C06BE771E088EB40
:1031C00093E00E94680D64E670E080E090E00E9469
:1031D0003C020F5F1F4F0730110501F76AE082EED6
:1031E00092E00E94750368E571E082EE92E00E9431
:1031F000680D8091D60380FF09C08E7F8093D6032F
:103200008DE791E00E94F70D0E94B408211431046B
:1032100009F45CCD0E94E603882309F457CD0E948F
:10322000000054CD1091D903612F6F7770E090E0CA
:1032300080E00E94D31920E030E040E853E40E948F
:10324000321A2B013C016091DA0370E090E080E0DB
:103250000E94D319A30192010E948B1B2DEC3CEC20
:103260004CEC5DE30E94321A2B013C0117FFA1CE0A
:1032700077FA709477F870949CCE8BE791E00E9477
:10328000690422E0B701A60182EE92E00E940A0ED4
:103290008EE691E00E94F70DC982DA82EB82FC8211
:1032A0008DE691E00E94690422E0B301A20182EE62
:1032B00092E00E940A0E80E791E00E94F70D4D8295
:1032C0005E826F82788690CEC12CD12C80ECE82E65
:1032D0008FE7F82EA0CE60E070E080EC9FE7BFCED5
:1032E00060E070E080EC9FE7E6CE6AE088EB93E078
:1032F0000E94750368CFCF93DF93C0918F03D09165
:103300009003209749F08A819B81009711F00E94D9
:103310008020CE010E94802080918D0390918E03A9
:10332000009711F00E948020809191039091920368
:10333000009739F0DC01ED91FC910280F381E02DE2
:1033400009958091930390919403009739F0DC01E3
:10335000ED91FC910280F381E02D09958AE491E0E2
:103360009093B9038093B80380915C0290915D02C1
:10337000885B934071F4E091CB03F091CC03908192
:103380008091CD0380958923808310925D021092F5
:103390005C02DF91CF9108950E940E1A08F481E03B
:1033A0000895E89409C097FB3EF490958095709538
:1033B00061957F4F8F4F9F4F9923A9F0F92F96E981
:1033C000BB279395F695879577956795B795F111F6
:1033D000F8CFFAF4BB0F11F460FF1BC06F5F7F4F93
:1033E0008F4F9F4F16C0882311F096E911C07723A5
:1033F00021F09EE8872F762F05C0662371F096E8AE
:10340000862F70E060E02AF09A95660F771F881F7C
:10341000DAF7880F9695879597F90895990F000820
:10342000550FAA0BE0E8FEEF16161706E807F90796
:10343000C0F012161306E407F50798F0621B730B31
:10344000840B950B39F40A2661F0232B242B252BB2
:1034500021F408950A2609F4A140A6958FEF811D55
:10346000811D08950E94451A0C94B61A0E94A81A4C
:1034700038F00E94AF1A20F0952311F00C949F1A97
:103480000C94A51A11240C94EA1A0E94C71A70F31E
:10349000959FC1F3950F50E0551F629FF001729FF9
:1034A000BB27F00DB11D639FAA27F00DB11DAA1F08
:1034B000649F6627B00DA11D661F829F2227B00D55
:1034C000A11D621F739FB00DA11D621F839FA00DE0
:1034D000611D221F749F3327A00D611D231F849F30
:1034E000600D211D822F762F6A2F11249F57504087
:1034F0009AF0F1F088234AF0EE0FFF1FBB1F661F02
:10350000771F881F91505040A9F79E3F510580F0CA
:103510000C949F1A0C94EA1A5F3FE4F3983ED4F39C
:10352000869577956795B795F795E7959F5FC1F76E
:10353000FE2B880F911D9695879597F9089597F919
:103540009F6780E870E060E008959FEF80EC089549
:1035500000240A9416161706180609060895002472
:103560000A9412161306140605060895092E0394EC
:10357000000C11F4882352F0BB0F40F4BF2B11F460
:1035800060FF04C06F5F7F4F8F4F9F4F089557FDBF
:103590009058440F551F59F05F3F71F04795880FC1
:1035A00097FB991F61F09F3F79F087950895121658
:1035B00013061406551FF2CF4695F1DF08C0161604
:1035C00017061806991FF1CF8695710561050894B5
:1035D0000895E894BB2766277727CB0197F90895CC
:1035E000052E97FB1EF400940E94071B57FD07D081
:1035F0000E94591B07FC03D04EF40C94071B5095F6
:103600004095309521953F4F4F4F5F4F08959095CE
:103610008095709561957F4F8F4F9F4F08950E94C1
:103620007B1BA59F900DB49F900DA49F800D911DB5
:1036300011240895B7FF0C940F1B0E940F1B821BCF
:10364000930B08952F923F924F925F926F927F92C9
:103650008F929F92AF92BF92CF92DF92EF92FF92A2
:103660000F931F93CF93DF93CDB7DEB7CA1BDB0B4E
:103670000FB6F894DEBF0FBECDBF09942A883988F3
:1036800048885F846E847D848C849B84AA84B984FA
:10369000C884DF80EE80FD800C811B81AA81B98106
:1036A000CE0FD11D0FB6F894DEBF0FBECDBFED011A
:1036B0000895A1E21A2EAA1BBB1BFD010DC0AA1F73
:1036C000BB1FEE1FFF1FA217B307E407F50720F08B
:1036D000A21BB30BE40BF50B661F771F881F991F06
:1036E0001A9469F760957095809590959B01AC014F
:1036F000BD01CF010895A29FB001B39FC001A39F58
:10370000700D811D1124911DB29F700D811D11241A
:10371000911D08955058BB27AA270E94A21B0C9404
:10372000B61A0E94A81A38F00E94AF1A20F039F495
:103730009F3F19F426F40C94A51A0EF4E095E7FBCC
:103740000C949F1AE92F0E94C71A58F3BA17620700
:1037500073078407950720F079F4A6F50C94E91A0D
:103760000EF4E0950B2EBA2FA02D0B01B90190019C
:103770000C01CA01A0011124FF27591B99F0593FE0
:1037800050F4503E68F11A16F040A22F232F342F28
:103790004427585FF3CF469537952795A795F04076
:1037A0005395C9F77EF41F16BA0B620B730B840B8B
:1037B000BAF09150A1F0FF0FBB1F661F771F881F43
:1037C000C2F70EC0BA0F621F731F841F48F487959B
:1037D00077956795B795F7959E3F08F0B0CF93958D
:1037E000880F08F09927EE0F9795879508950E9406
:1037F0000B1C0C94B61A0E94AF1A58F00E94A81A1B
:1038000040F029F45F3F29F00C949F1A51110C9459
:10381000EA1A0C94A51A0E94C71A68F39923B1F307
:10382000552391F3951B550BBB27AA2762177307E6
:10383000840738F09F5F5F4F220F331F441FAA1F7A
:10384000A9F335D00E2E3AF0E0E832D09150504036
:10385000E695001CCAF72BD0FE2F29D0660F771FE4
:10386000881FBB1F261737074807AB07B0E809F0CA
:10387000BB0B802DBF01FF2793585F4F3AF09E3F4F
:10388000510578F00C949F1A0C94EA1A5F3FE4F308
:10389000983ED4F3869577956795B795F7959F5F92
:1038A000C9F7880F911D9695879597F90895E1E0DE
:1038B000660F771F881FBB1F621773078407BA073D
:1038C00020F0621B730B840BBA0BEE1F88F7E09598
:1038D00008950E94CF1A88F09F5798F0B92F992722
:1038E000B751B0F0E1F0660F771F881F991F1AF0EB
:1038F000BA95C9F714C0B13091F00E94E91AB1E04D
:1039000008950C94E91A672F782F8827B85F39F04B
:10391000B93FCCF3869577956795B395D9F73EF483
:1039200090958095709561957F4F8F4F9F4F08952B
:1039300097FB16F40E94DC1C0C949F1CE894F92F52
:1039400096EBFF2381F0121613061406440B939591
:10395000F69587957795679557954040FF23B9F77A
:103960001BC099270895882351F49850D2F7872BCC
:10397000762F652F542F432F322F20E0B1F31216EC
:1039800013061406440B88233AF09A95440F551FEA
:10399000661F771F881FCAF755234AF4440F551F27
:1039A00011F460FF04C06F5F7F4F8F4F9F4F880FF0
:1039B0009695879597F9089590958095709560955F
:1039C00050954095309521953F4F4F4F5F4F6F4F2A
:1039D0007F4F8F4F9F4F08950E940E1A08F48FEF6C
:1039E0000895FA01EE0FFF1F309621053105A1F170
:1039F0006115710561F48038BFE39B0749F1689454
:103A00009038810561F08038BFEF9B0741F0992322
:103A10004AF5FF3FE1053105210519F1E8940894C5
:103A2000E795D901AA2329F4AB2FBE2FF85FD0F375
:103A300010C0FF5F70F4A695E0F7F73950F019F069
:103A4000FF3A38F49F779F930DD00F9007FC905862
:103A5000089546F00C94A51A60E070E080E89FE3BA
:103A600008954FE79F775F934F933F932F930E9463
:103A7000F11D2F913F914F915F910E94321A0C944A
:103A80004E1D0E940E1A880B990B089529F416F00A
:103A90000C949F1A0C94E91A0C94A51A0E94CF1A40
:103AA000A8F39638A0F707F80F92E8942BE33AEAC8
:103AB00048EB5FE70E94481A0F920F920F924DB7A2
:103AC0005EB70F920E94391EE8E6F0E00E94801D6A
:103AD0004F915F91EF91FF91E595EE1FFF1F49F028
:103AE000FE57E0684427EE0F441FFA95E1F7419531
:103AF000550B0E94B31D0F9007FE0C94A71D08954F
:103B0000DF93CF931F930F93FF92EF92DF927B018E
:103B10008C01689406C0DA2EEF010E94451AFE015E
:103B2000E894A5912591359145915591A6F3EF0122
:103B30000E94A21BFE019701A801DA9469F7DF90A9
:103B4000EF90FF900F911F91CF91DF9108959B010E
:103B5000AC0160E070E080E89FE30C94F71B0C94EC
:103B60009F1A0C946D1E0E94CF1AD8F39923C9F3A3
:103B7000940F511DA3F39150504094F059F08823B5
:103B800032F0660F771F881F91505040C1F79E3F5B
:103B900051052CF7880F911D9695879597F90895F3
:103BA0005F3FACF0983E9CF0BB2786957795679574
:103BB000B79508F4B1609395C1F7BB0F58F711F4AE
:103BC00060FFE8CF6F5F7F4F8F4F9F4FE3CF0C9425
:103BD000EA1A16F00C946D1E0C94A51A68940C94B5
:103BE0009F1A0E94CF1AA8F39923C1F3AEF3DF9373
:103BF000CF931F930F93FF92C92FDD2788232AF0BD
:103C00002197660F771F881FDAF720E030E040E841
:103C10005FEB9FE3883920F0803E38F021968F7764
:103C20000E948B1BE0E9F0E004C00E948B1BEDEBCF
:103C3000F0E00E94801D8B01BE01EC01FB2E6F574E
:103C400071097595771F880B990B0E94D31928E18C
:103C500032E741E35FE30E94451AAF2D9801AE01C0
:103C6000FF900F911F91CF91DF910E94A21B0C94A6
:103C7000B61AFA01DC01AA0FBB1F9B01AC01BF57AA
:103C800028F4222733274427507820C0B75190F4D6
:103C9000AB2F0024469537952795011CA395D2F3A9
:103CA000002071F0220F331F441FB395DAF30ED0BA
:103CB0000C948A1B61307105A0E88A07B94630F47C
:103CC0009B01AC016627772788279078309621F0F2
:103CD000208331834283538308959F3F31F0915075
:103CE00020F4879577956795B795880F911D9695E0
:103CF000879597F90895DB018F939F930E940F1B7F
:103D0000BF91AF91A29F800D911DA39F900DB29F77
:103D1000900D112408950E947B1BB7FF0895821B0C
:103D2000930B0895DF93CF931F930F939A9DF02DDC
:103D3000219FF00D8B9DF00D8A9DE02DF10D039FCD
:103D4000F00D029FE00DF11D4E9DE00DF11D5E9DF9
:103D5000F00D4F9DF00D7F936F93BF92AF925F93E5
:103D60004F93D5010E947B1B8B01AC01D7010E94B0
:103D70007B1BEB01E80FF91FD6010E94E11E2F917A
:103D80003F91D6010E947B1BC60FD71FE81FF91F6A
:103D9000AF91BF910E94E11E2F913F910E947B1B2A
:103DA000C60FD71FE81FF91FD6010E947B1BE60F25
:103DB000F71F9801BE01CF010F911F91CF91DF91A5
:103DC00008950E947B1B460F571FC81FD91F08F478
:103DD00031960895689401C0E894F92FF12B12F000
:103DE0000C941E1FA0E0B0E0E8EFFEE10C94281B4D
:103DF000092E059422F40E947A1F112392F4F0E810
:103E00000F26FFEFE094F09400951095B094C094C5
:103E1000D094A194BF0ACF0ADF0AEF0AFF0A0F0B62
:103E20001F0B0E94291F07FC0E947A1FCDB7DEB727
:103E3000ECE00C94441B689401C0E8948F929F922C
:103E4000CF93DF930E94291FDF91CF919F908F9096
:103E5000089588249924F401E401B0E49F93AA27EB
:103E60009A158B049C04ED05FE05CF05D007A1072C
:103E700098F4AD2FDC2FCF2FFE2FE92D982C892E13
:103E8000982F872F762F652F542F432F322F2227DD
:103E9000B85031F7BF9127C01B2EBF91BB27220F0F
:103EA000331F441F551F661F771F881F991F881CCB
:103EB000991CEE1FFF1FCC1FDD1FAA1FBB1F8A14FA
:103EC0009B04EC05FD05CE05DF05A007B10748F012
:103ED0008A189B08EC09FD09CE09DF09A00BB10B7C
:103EE00021601A94E1F62EF49401AF01BE01CD01D8
:103EF000000C08956095709580959095309540954B
:103F0000509521953F4F4F4F5F4F6F4F7F4F8F4FD2
:103F10009F4F0895002E083090F0982F872F762F0E
:103F2000652F542F432F322F22270850F4CF220F12
:103F3000331F441F551F661F771F881F991F0A953F
:103F4000B2F7002D089597FD1094002E083098F0D8
:103F50000850232F342F452F562F672F782F892F66
:103F6000912DF4CF159497958795779567955795EB
:103F70004795379527950A95AAF71124002D08959E
:103F80002A0D3B1D4C1D5D1D6E1D7F1D801F911F49
:103F900008952A193B094C095D096E097F09800BB8
:103FA000910B08950024A7FD00942A1730054005C1
:103FB000500560057005800590050895EE0FFF1F00
:103FC0000590F491E02D09940F931F93CF93DF9305
:103FD0008230910510F482E090E0E091EB03F091E3
:103FE000EC0330E020E0B0E0A0E0309799F4211538
:103FF000310509F44AC0281B390B24303105D8F5A6
:104000008A819B816115710589F1FB01938382830C
:10401000FE0111C040815181028113814817590767
:10402000E0F04817590799F4109761F012960C9335
:10403000129713961C933296CF01DF91CF911F9167
:104040000F9108950093EB031093EC03F4CF211527
:10405000310551F04217530738F0A901DB019A01ED
:10406000BD01DF01F801C1CFEF01F9CF9093EC035F
:104070008093EB03CDCFFE01E20FF31F8193919369
:104080002250310939832883D7CF2091E903309119
:10409000EA03232B41F42091020130910301309374
:1040A000EA032093E90320910001309101012115D9
:1040B000310541F42DB73EB74091040150910501FF
:1040C000241B350BE091E903F091EA03E217F307B3
:1040D000A0F42E1B3F0B2817390778F0AC014E5F78
:1040E0005F4F2417350748F04E0F5F1F5093EA03C8
:1040F0004093E903819391939FCFF0E0E0E09CCF60
:10410000CF93DF930097E9F0FC013297138212827C
:10411000A091EB03B091EC03ED0130E020E01097AB
:10412000A1F420813181820F931F2091E903309106
:10413000EA032817390709F061C0F093EA03E09316
:10414000E903DF91CF910895EA01CE17DF07E8F583
:104150004A815B819E0141155105B1F7E901FB835D
:10416000EA8349915991C40FD51FEC17FD0761F4FB
:10417000808191810296840F951FE901998388833C
:10418000828193819B838A83F0E0E0E012968D9197
:104190009C9113970097B9F52D913C911197CD0102
:1041A0000296820F931F2091E9033091EA032817AA
:1041B000390739F6309751F51092EC031092EB0362
:1041C000B093EA03A093E903BCCFD383C2834081B9
:1041D0005181840F951FC817D90761F44E5F5F4F57
:1041E00088819981480F591F518340838A819B811F
:1041F000938382832115310509F0B0CFF093EC034E
:10420000E093EB039ECFFD01DC01C0CF138212824D
:10421000D7CFB0E0A0E0EFE0F1E20C94241B8C01DA
:10422000009751F4CB010E94E41F8C01C801CDB767
:10423000DEB7E0E10C94401BFC01E60FF71F9C0188
:1042400022503109E217F30708F49DC0D901CD913E
:10425000DC911197C617D70798F0C530D10530F318
:10426000CE0104978617970708F3C61BD70B229732
:10427000C193D1936D937C93CF010E948020D6CFC0
:104280005B01AC1ABD0A4C018C0E9D1EA091EB0384
:10429000B091EC03512C412CF12CE12C109731F50D
:1042A0008091E9039091EA038815990509F05CC0B3
:1042B0004616570608F058C0809100019091010100
:1042C000009741F48DB79EB74091040150910501CC
:1042D000841B950BE817F90708F055C0F093EA0323
:1042E000E093E903F90171836083A0CF8D919C91E4
:1042F000119712966C90129713967C901397A815AD
:10430000B90559F56C0142E0C40ED11CCA14DB0496
:1043100020F1AC014A195B09DA011296159780F079
:104320006282738251834083D9016D937C93E1143F
:10433000F10471F0D7011396FC93EE93129776CFA8
:1043400022968C0F9D1FF90191838083F301EFCF9B
:10435000F093EC03E093EB0369CF4816590608F499
:104360002C017D01D3019ACFCB010E94E41F7C0177
:10437000009749F0AE01B8010E94C621C8010E9411
:104380008020870153CF10E000E050CFFB01DC011B
:1043900002C001900D9241505040D8F70895FB01A2
:1043A000DC0101900D920020E1F70895FB01DC0192
:1043B0004150504048F001900D920020C9F701C0D3
:1043C0001D9241505040E0F7089511E0C1E0D1E066
:1043D00004C0FE010E94DE1F2196C230D107C9F73A
:0443E000F894FFCF7F
:1043E4000000ED038000000000001C047C03A9030E
:1043F4008404DA03B803CC03000000005106240649
:10440400B108FA051D060A06FB0500000000D207E4
:10441400660DD307500FEE0F00000000D207640DA5
:10442400D307A20F3D1000000000EC077C03B10885
:10443400FA0548085E08D4070D0A006E616E00692B
:104444006E66006F766600424D50323830002500AB
:104454002A43006850610070706D002C00536F6631
:10446400747761726553657269616C206F766572E9
:06447400666C6F77210069
:00000001FF
